{
  "_format": "hh-sol-artifact-1",
  "contractName": "Lottery",
  "sourceName": "contracts/Lottery.sol",
  "abi": [
    {
      "inputs": [],
      "stateMutability": "nonpayable",
      "type": "constructor"
    },
    {
      "inputs": [],
      "name": "enter",
      "outputs": [],
      "stateMutability": "payable",
      "type": "function"
    },
    {
      "inputs": [],
      "name": "getBalance",
      "outputs": [
        {
          "internalType": "uint256",
          "name": "",
          "type": "uint256"
        }
      ],
      "stateMutability": "view",
      "type": "function"
    },
    {
      "inputs": [],
      "name": "getLotteryId",
      "outputs": [
        {
          "internalType": "uint256",
          "name": "",
          "type": "uint256"
        }
      ],
      "stateMutability": "view",
      "type": "function"
    },
    {
      "inputs": [],
      "name": "getPlayers",
      "outputs": [
        {
          "internalType": "address payable[]",
          "name": "",
          "type": "address[]"
        }
      ],
      "stateMutability": "view",
      "type": "function"
    },
    {
      "inputs": [],
      "name": "getRandomNumber",
      "outputs": [
        {
          "internalType": "uint256",
          "name": "",
          "type": "uint256"
        }
      ],
      "stateMutability": "view",
      "type": "function"
    },
    {
      "inputs": [],
      "name": "getWinners",
      "outputs": [
        {
          "internalType": "address[]",
          "name": "",
          "type": "address[]"
        }
      ],
      "stateMutability": "view",
      "type": "function"
    },
    {
      "inputs": [],
      "name": "lotteryId",
      "outputs": [
        {
          "internalType": "uint256",
          "name": "",
          "type": "uint256"
        }
      ],
      "stateMutability": "view",
      "type": "function"
    },
    {
      "inputs": [],
      "name": "owner",
      "outputs": [
        {
          "internalType": "address",
          "name": "",
          "type": "address"
        }
      ],
      "stateMutability": "view",
      "type": "function"
    },
    {
      "inputs": [],
      "name": "pickWinner",
      "outputs": [],
      "stateMutability": "nonpayable",
      "type": "function"
    },
    {
      "inputs": [
        {
          "internalType": "uint256",
          "name": "",
          "type": "uint256"
        }
      ],
      "name": "players",
      "outputs": [
        {
          "internalType": "address payable",
          "name": "",
          "type": "address"
        }
      ],
      "stateMutability": "view",
      "type": "function"
    },
    {
      "inputs": [
        {
          "internalType": "uint256",
          "name": "",
          "type": "uint256"
        }
      ],
      "name": "winners",
      "outputs": [
        {
          "internalType": "address",
          "name": "",
          "type": "address"
        }
      ],
      "stateMutability": "view",
      "type": "function"
    }
  ],
  "bytecode": "0x608060405234801561001057600080fd5b50336000806101000a81548173ffffffffffffffffffffffffffffffffffffffff021916908373ffffffffffffffffffffffffffffffffffffffff1602179055506000600381905550610cb2806100686000396000f3fe60806040526004361061009c5760003560e01c8063a2fb117511610064578063a2fb117514610164578063dbdff2c1146101a1578063df15c37e146101cc578063e580f47b146101f7578063e97dcb6214610222578063f71d96cb1461022c5761009c565b806312065fe0146100a15780635d495aea146100cc5780638b5b9ccc146100e35780638da5cb5b1461010e578063900aafaf14610139575b600080fd5b3480156100ad57600080fd5b506100b6610269565b6040516100c391906107e1565b60405180910390f35b3480156100d857600080fd5b506100e1610271565b005b3480156100ef57600080fd5b506100f8610486565b60405161010591906108ec565b60405180910390f35b34801561011a57600080fd5b50610123610514565b604051610130919061092f565b60405180910390f35b34801561014557600080fd5b5061014e610538565b60405161015b91906107e1565b60405180910390f35b34801561017057600080fd5b5061018b6004803603810190610186919061097b565b610542565b604051610198919061092f565b60405180910390f35b3480156101ad57600080fd5b506101b6610581565b6040516101c391906107e1565b60405180910390f35b3480156101d857600080fd5b506101e16105d5565b6040516101ee9190610a66565b60405180910390f35b34801561020357600080fd5b5061020c610663565b60405161021991906107e1565b60405180910390f35b61022a610669565b005b34801561023857600080fd5b50610253600480360381019061024e919061097b565b6106e2565b6040516102609190610a97565b60405180910390f35b600047905090565b60008054906101000a900473ffffffffffffffffffffffffffffffffffffffff1673ffffffffffffffffffffffffffffffffffffffff163373ffffffffffffffffffffffffffffffffffffffff16146102c957600080fd5b60006001805490506102d9610581565b6102e39190610ae1565b9050600181815481106102f9576102f8610b12565b5b9060005260206000200160009054906101000a900473ffffffffffffffffffffffffffffffffffffffff1673ffffffffffffffffffffffffffffffffffffffff166108fc479081150290604051600060405180830381858888f19350505050158015610369573d6000803e3d6000fd5b506002600182815481106103805761037f610b12565b5b9060005260206000200160009054906101000a900473ffffffffffffffffffffffffffffffffffffffff169080600181540180825580915050600190039060005260206000200160009091909190916101000a81548173ffffffffffffffffffffffffffffffffffffffff021916908373ffffffffffffffffffffffffffffffffffffffff1602179055506003600081548092919061041e90610b70565b9190505550600067ffffffffffffffff81111561043e5761043d610bb8565b5b60405190808252806020026020018201604052801561046c5781602001602082028036833780820191505090505b5060019080519060200190610482929190610721565b5050565b6060600180548060200260200160405190810160405280929190818152602001828054801561050a57602002820191906000526020600020905b8160009054906101000a900473ffffffffffffffffffffffffffffffffffffffff1673ffffffffffffffffffffffffffffffffffffffff16815260200190600101908083116104c0575b5050505050905090565b60008054906101000a900473ffffffffffffffffffffffffffffffffffffffff1681565b6000600354905090565b6002818154811061055257600080fd5b906000526020600020016000915054906101000a900473ffffffffffffffffffffffffffffffffffffffff1681565b60008060009054906101000a900473ffffffffffffffffffffffffffffffffffffffff16426040516020016105b7929190610c50565b6040516020818303038152906040528051906020012060001c905090565b6060600280548060200260200160405190810160405280929190818152602001828054801561065957602002820191906000526020600020905b8160009054906101000a900473ffffffffffffffffffffffffffffffffffffffff1673ffffffffffffffffffffffffffffffffffffffff168152602001906001019080831161060f575b5050505050905090565b60035481565b662386f26fc1000034101561067d57600080fd5b6001339080600181540180825580915050600190039060005260206000200160009091909190916101000a81548173ffffffffffffffffffffffffffffffffffffffff021916908373ffffffffffffffffffffffffffffffffffffffff160217905550565b600181815481106106f257600080fd5b906000526020600020016000915054906101000a900473ffffffffffffffffffffffffffffffffffffffff1681565b82805482825590600052602060002090810192821561079a579160200282015b828111156107995782518260006101000a81548173ffffffffffffffffffffffffffffffffffffffff021916908373ffffffffffffffffffffffffffffffffffffffff16021790555091602001919060010190610741565b5b5090506107a791906107ab565b5090565b5b808211156107c45760008160009055506001016107ac565b5090565b6000819050919050565b6107db816107c8565b82525050565b60006020820190506107f660008301846107d2565b92915050565b600081519050919050565b600082825260208201905092915050565b6000819050602082019050919050565b600073ffffffffffffffffffffffffffffffffffffffff82169050919050565b600061085382610828565b9050919050565b61086381610848565b82525050565b6000610875838361085a565b60208301905092915050565b6000602082019050919050565b6000610899826107fc565b6108a38185610807565b93506108ae83610818565b8060005b838110156108df5781516108c68882610869565b97506108d183610881565b9250506001810190506108b2565b5085935050505092915050565b60006020820190508181036000830152610906818461088e565b905092915050565b600061091982610828565b9050919050565b6109298161090e565b82525050565b60006020820190506109446000830184610920565b92915050565b600080fd5b610958816107c8565b811461096357600080fd5b50565b6000813590506109758161094f565b92915050565b6000602082840312156109915761099061094a565b5b600061099f84828501610966565b91505092915050565b600081519050919050565b600082825260208201905092915050565b6000819050602082019050919050565b6109dd8161090e565b82525050565b60006109ef83836109d4565b60208301905092915050565b6000602082019050919050565b6000610a13826109a8565b610a1d81856109b3565b9350610a28836109c4565b8060005b83811015610a59578151610a4088826109e3565b9750610a4b836109fb565b925050600181019050610a2c565b5085935050505092915050565b60006020820190508181036000830152610a808184610a08565b905092915050565b610a9181610848565b82525050565b6000602082019050610aac6000830184610a88565b92915050565b7f4e487b7100000000000000000000000000000000000000000000000000000000600052601260045260246000fd5b6000610aec826107c8565b9150610af7836107c8565b925082610b0757610b06610ab2565b5b828206905092915050565b7f4e487b7100000000000000000000000000000000000000000000000000000000600052603260045260246000fd5b7f4e487b7100000000000000000000000000000000000000000000000000000000600052601160045260246000fd5b6000610b7b826107c8565b91507fffffffffffffffffffffffffffffffffffffffffffffffffffffffffffffffff8203610bad57610bac610b41565b5b600182019050919050565b7f4e487b7100000000000000000000000000000000000000000000000000000000600052604160045260246000fd5b60008160601b9050919050565b6000610bff82610be7565b9050919050565b6000610c1182610bf4565b9050919050565b610c29610c248261090e565b610c06565b82525050565b6000819050919050565b610c4a610c45826107c8565b610c2f565b82525050565b6000610c5c8285610c18565b601482019150610c6c8284610c39565b602082019150819050939250505056fea26469706673582212202a5ea55ffd192afd8f211ccb8637fad07d60995e5b01f9052dee280c070ccca364736f6c63430008120033",
  "linkReferences": {},
  "deployedLinkReferences": {}
}